:100000000C9435010C9466010C9466010C94660105
:100010000C9466010C9466010C9466010C946601C4
:100020000C9466010C9466010C9466010C946601B4
:100030000C9466010C9466010C9466010C946601A4
:100040000C9466010C9466010C9466010C94660194
:100050000C9466010C9466010C9466010C942D1AA4
:100060000C9466010C94011B0C94D71A0C94660135
:100070000C9466010C9466010C9466010C94660164
:100080000C9466010C9466010C9466010C94660154
:100090000C94A11A0C94771A0C9466010C946601C6
:1000A0000C9466010C9466010C9466010C94660134
:1000B0000C9466010C9466010C9466010C94660124
:1000C0000C9466010C9466010C9466010C94660114
:1000D0000C9466010C9466010C9466010C94660104
:1000E0000C9466010C9456020C948E030C946802D6
:1000F0000C9448020C944C020C9422040C946C0353
:100100000C9433020C9430030C945D030C946E0237
:100110000C9442020C942D020C9480030C943F0228
:100120000C9437020C9472020C945A020C946002E4
:100130000C94D0030C9452020C946D020C943B026C
:100140000C9464020C94371B00002000230026004E
:1001500029002C002F0032000001000003010601DD
:10016000090100000A0B02090C0D0E080703040127
:10017000000000000000000000000000000000007F
:10018000000000000000000000000000000012114C
:10019000100000000000000000000000000000004F
:1001A00000000000000000000000220025002800E0
:1001B0002B002E003100340002010000050108016F
:1001C0000B0100002100240027002A002D00300030
:1001D000330001010000040107010A0105050505BE
:1001E000070508080808020202020A0A08080404AF
:1001F00004040101010101010101030303030303DD
:100200000303040707070C0C0C0C0C0C0C0C02026B
:10021000020206060606060606060B0B0B0B0B0B68
:100220000B0B0102102020080810204010204080F5
:1002300002010201080402010102040810204080AA
:100240008040201008040201800402018040201038
:100250000804020108040201010204081020408081
:100260000102040810204080371B11241FBECFEF6D
:10027000D1E2DEBFCDBF00E00CBF23E0A6E3B2E0D9
:1002800001C01D92A339B207E1F712E0A0E0B2E08D
:10029000E0E0F8E400E00BBF02C007900D92A63347
:1002A000B107D9F711E0C5E3D1E000E006C021971E
:1002B0000109802FFE010E94E021C433D10780E0B4
:1002C0000807A9F70E949F1B0C94FE230C940000C2
:1002D000FC01A089B18982E08C93A485B5851C922C
:1002E000A685B7858FEC8C93108EA489B58986E09E
:1002F0008C93A289B3898C9180618C93A289B389F4
:100300008C9188608C93A289B3898C9180688C933E
:100310000288F389E02D80818F7D8083089590E0AD
:10032000FC01EE5DFD4F249184529E4FFC018491AF
:10033000882399F090E0880F991FFC01EE53FE4F3F
:10034000A591B491FC01E855FE4F859194918FB72A
:10035000F894EC91E22BEC938FBF089540918B03BE
:1003600050918C0360918D0370918E034F5F5F4FAE
:100370006F4F7F4F40938B0350938C0360938D039B
:1003800070938E0390918903911113C091E0909323
:100390008903209181033091820330938603209357
:1003A000850310928B0310928C0310928D03109290
:1003B0008E03909187039923C1F090E09C013595BD
:1003C00027952575880F991F8A7A822B282F30E070
:1003D000C90195958795959587958373220F331F4E
:1003E000220F331F2C7C822B829520918503309124
:1003F0008603A9015827CA0140917F0350918003C9
:1004000028E0BC01880F991F77FF02C08427952739
:100410002150B9F790938603809385030895815006
:10042000823108F05AC0E82FF0E08827E55EFD4FE2
:100430008F4F0C94E0213B023F022D023302370222
:100440006D02420248024C02520256025A026002F7
:1004500064026D0268026E027202809180008F77E2
:10046000809380000895809180008F7DF9CF8091E6
:100470008000877FF5CF84B58F7784BD089584B5DC
:100480008F7DFBCF8091B0008F778093B00008956F
:100490008091B0008F7DF9CF809190008F7780930D
:1004A00090000895809190008F7DF9CF8091900009
:1004B000877FF5CF8091A0008F778093A00008956B
:1004C0008091A0008F7DF9CF8091A000877FF5CF2C
:1004D000809120018F7780932001089580912001E1
:1004E0008F7DF9CF80912001877FF5CFCF93DF9368
:1004F000282F30E0F901EE59FE4F8491F901EE5DAD
:10050000FD4FD491F901E452FE4FC491CC23A1F0E8
:1005100081110E940F02EC2FF0E0EE0FFF1FE85B4D
:10052000FE4FA591B491EC91ED2381E090E009F4A8
:1005300080E0DF91CF91089580E090E0FACF1F93A3
:10054000CF93DF93282F30E0F901EE59FE4F8491CD
:10055000F901EE5DFD4FD491F901E452FE4FC491D3
:10056000CC23A9F0162F81110E940F02EC2FF0E08E
:10057000EE0FFF1FE855FE4FA591B4918FB7F89489
:10058000EC91111108C0D095DE23DC938FBFDF9171
:10059000CF911F910895DE2BF8CF3FB7F89480914B
:1005A000410290914202A0914302B091440226B5CB
:1005B000A89B05C02F3F19F00196A11DB11D3FBF9B
:1005C000BA2FA92F982F8827BC01CD01620F711D6A
:1005D000811D911D42E0660F771F881F991F4A9564
:1005E000D1F708958F929F92AF92BF92CF92DF92F0
:1005F000EF92FF924B015C010E94CD026B017C01E6
:100600000E94CD026C197D098E099F09683E7340D6
:1006100081059105A8F321E0821A9108A108B1088B
:1006200088EEC80E83E0D81EE11CF11C81149104F1
:10063000A104B10429F7FF90EF90DF90CF90BF9015
:10064000AF909F908F9008952FB7F89460913D02DE
:1006500070913E0280913F02909140022FBF089519
:10066000AF92BF92CF92DF92EF92FF920F931F93C0
:10067000CF93DF936C017B018B01040F151FEB01FE
:100680005E01AE18BF08C017D10759F06991D601B5
:10069000ED91FC910190F081E02DC6011995892B17
:1006A00079F7C501DF91CF911F910F91FF90EF90E6
:1006B000DF90CF90BF90AF900895FC01538D448D93
:1006C000252F30E0842F90E0821B930B541710F0FD
:1006D000CF96089501970895FC01918D828D98170A
:1006E00061F0A28DAE0FBF2FB11D5D968C91928DE2
:1006F0009F5F9F73928F90E008958FEF9FEF089513
:10070000FC01918D828D981731F0828DE80FF11DDB
:10071000858D90E008958FEF9FEF0895FC01918DF6
:10072000228D892F90E0805C9F4F821B91098F73EF
:100730009927089585E492E00E948E0321E0892B99
:1007400009F420E0822F089582EE92E00E948E0349
:1007500021E0892B09F420E0822F0895FC01A48D6B
:10076000A80FB92FB11DA35ABF4F2C91848D90E0D3
:1007700001968F739927848FA689B7892C93A089B6
:10078000B1898C91837080648C93938D848D981340
:1007900006C00288F389E02D80818F7D80830895D3
:1007A000EF92FF920F931F93CF93DF93EC0181E0C1
:1007B000888F9B8D8C8D98131AC0E889F989808168
:1007C00085FF15C09FB7F894EE89FF896083E8899B
:1007D000F98980818370806480839FBF81E090E08D
:1007E000DF91CF911F910F91FF90EF900895F62E1A
:1007F0000B8D10E00F5F1F4F0F731127E02E8C8DB4
:100800008E110CC00FB607FCFACFE889F9898081F8
:1008100085FFF5CFCE010E94AE03F1CFEB8DEC0F3B
:10082000FD2FF11DE35AFF4FF0829FB7F8940B8F15
:10083000EA89FB8980818062CFCF682F85E492E0CE
:100840000C94D003CF93DF93EC01888D8823B9F00B
:10085000AA89BB89E889F9898C9185FD03C08081CB
:1008600086FD0DC00FB607FCF7CF8C9185FFF2CF48
:10087000808185FFEDCFCE010E94AE03E9CFDF91ED
:10088000CF91089580E090E0892B29F00E94A40385
:1008900081110E94000080E090E0892B29F00E94E5
:1008A0009A0381110E94000080E090E0892B49F0BA
:1008B00080E090E0892B29F00E94000081110E94C5
:1008C000000080E090E0892B49F080E090E0892BE7
:1008D00029F00E94000081110C94000008951F93DC
:1008E000CF93DF93182F60E082E00E949F02612F78
:1008F000607883E00E949F02C7E0D0E0CE010197BC
:10090000F1F761E082E00E949F02CE010197F1F7CA
:1009100060E082E00E949F02612F607483E00E9489
:100920009F02CE010197F1F761E082E00E949F02F1
:10093000CE010197F1F760E082E00E949F02612FF3
:10094000607283E00E949F02CE010197F1F761E09F
:1009500082E00E949F02CE010197F1F760E082E001
:100960000E949F02612F607183E00E949F02CE016E
:100970000197F1F761E082E00E949F02CE010197AA
:10098000F1F760E082E00E949F02612F687083E0CF
:100990000E949F02CE010197F1F761E082E00E9480
:1009A0009F02CE010197F1F760E082E00E949F0272
:1009B000612F647083E00E949F02CE010197F1F7DE
:1009C00061E082E00E949F02CE010197F1F760E0B2
:1009D00082E00E949F02612F627083E00E949F026A
:1009E000CE010197F1F761E082E00E949F02CE0103
:1009F0000197F1F760E082E00E949F02612F617031
:100A000083E00E949F02CE010197F1F761E082E04E
:100A10000E949F022197F1F7DF91CF911F910895D6
:100A20001F93CF93DF93182FD62FC0E0812F0E9402
:100A30006F04CF5FDC13FACFDF91CF911F91089540
:100A40006AE08FEF0E94100561E084E00E949F023F
:100A500087E090E00197F1F760E084E00C949F025A
:100A60006AE080E00E94100561E084E00E949F023D
:100A700087E090E00197F1F760E084E00C949F023A
:100A8000CF93DF93EB010E946F048D2F0E946F04C0
:100A90008C2FDF91CF910C946F041F93CF93DF9332
:100AA000EB01182F892F0E946F04812F0E946F0481
:100AB0008D2F0E946F048C2FDF91CF911F910C948A
:100AC0006F04CF93DF93EC0181E090E00E941D045E
:100AD00086E090E00E941D0490E080E00E941D04EA
:100AE00080E390E00E941D0481E08093890380915F
:100AF00081039091820390938603809385031092E3
:100B00008B0310928C0310928D0310928E0381E060
:100B10000E94AE0186E00E94AE0180E00E94AE011C
:100B200080E30E94AE016D2F85E492E00E94D00325
:100B30006C2F85E492E00E94D0038D2F0E94AE01BD
:100B40008C2F0E94AE0180918503909186032091A5
:100B50008803222371F19C013695279525753575FB
:100B6000880F991F8A7A9A7A822B932B9C0136954B
:100B700027953695279523733373880F991F880F10
:100B8000991F8C7C9C7C282B392BC901E4E096951D
:100B90008795EA95E1F78F709F70F4E0220F331F7D
:100BA000FA95E1F7207F307F822B932B98278927B6
:100BB0009827C0918303D0918403C827D9276C2F2D
:100BC00085E492E00E94D0036D2F85E492E0DF91EE
:100BD000CF910C94D003FC0101900020E9F73197EC
:100BE000AF01481B590BBC0182EE92E00C9430031C
:100BF000CF93DF93FC01448155816081718182EE46
:100C000092E00E943003EC0181E292E00E94EB0549
:100C10008C0F9D1FDF91CF910895CF92DF92EF92BD
:100C2000FF920F931F93CF93DF93CDB7DEB7A197BA
:100C30000FB6F894DEBF0FBECDBF9B01AC0119A269
:100C40008E010F5D1F4F8AE0C82ED12CE12CF12CB4
:100C5000CA01B901A70196010E94BE21605DF80199
:100C600062938F01211531054105510589F73097B0
:100C7000C9F0CF010E94EB058C0181E292E00E9455
:100C8000EB05800F911FA1960FB6F894DEBF0FBE43
:100C9000CDBFDF91CF911F910F91FF90EF90DF902B
:100CA000CF90089510E000E0E8CFFC0180819181B1
:100CB000009711F00C94842208950F931F93CF9303
:100CC000DF93EC0188819981009759F02A813B815B
:100CD0002617370730F081E0DF91CF911F910F91F8
:100CE00008958B016F5F7F4F0E940D23009759F08D
:100CF000998388831B830A832C813D81232B59F799
:100D0000FC011082E8CF80E0E7CFEF92FF920F93D3
:100D10001F93CF93DF93EC01FB01E080F180E1149E
:100D2000F10411F10481158101151105A9F08C81DF
:100D30009D81080F191FB801CE010E945D0688230E
:100D400099F0288139818C819D81B701820F931F91
:100D50000E94F7231D830C83CE01DF91CF911F9159
:100D60000F91FF90EF90089588819981009711F07D
:100D70000E948422198218821D821C821B821A8280
:100D8000EBCFEF92FF920F931F93CF93DF93EC0182
:100D90007B018A01BA010E945D0628813981811197
:100DA00014C02115310519F0C9010E94842219824D
:100DB00018821D821C821B821A82CE01DF91CF9184
:100DC0001F910F91FF90EF9008951D830C83B70141
:100DD000C9010E94F723F1CFFC0111821082138216
:100DE00012821582148248E050E064E272E00C94B2
:100DF000C106CF93DF931F921F92CDB7DEB7FC01E0
:100E000011821082138212821582148269831A82DF
:100E1000BE016F5F7F4FFB0101900020E9F7319722
:100E2000AF01461B570B0E94C1060F900F90DF9138
:100E3000CF910895FB01DC0111961C921E9213962E
:100E40001C921E92129715961C921E92149786174A
:100E5000970749F0608171816115710521F0448126
:100E600055810C94C10608952F923F924F925F9244
:100E70006F927F928F929F92AF92BF92CF92DF92AA
:100E8000EF92FF920F931F93CF93DF93CDB7DEB70F
:100E900062970FB6F894DEBF0FBECDBF7BE0372E52
:100EA000E3E08E2E912CA12CB12C412C512C612CE5
:100EB000F3E07F2ECC24C394D12CA0E2EA2EF12CB7
:100EC00007E010E088E097E00E9461056EE1262EC1
:100ED00086E10E947602019709F089C081E480933F
:100EE000080288E10E947602019709F087C082E437
:100EF000809308028AE10E947602019709F085C07A
:100F000083E4809308028CE10E947602019709F045
:100F100083C084E4809308021092370286E20E9424
:100F20007602019719F485E48093080288E20E9412
:100F30007602019719F486E48093080282EE92E02B
:100F40000E948E03892B31F082EE92E00E946C03A6
:100F5000809308026091080280913602681709F4B4
:100F600062C060933602CE010D960E94F906CE0152
:100F700001960E94EC06BE016F5F7F4FCE0107967F
:100F80000E941A07BE01635F7F4FCE0107960E9441
:100F900085060E94F805CE0107960E945506CE01EF
:100FA00001960E945506CE010D960E94550680912D
:100FB0000802843419F081E08093370262960FB6FC
:100FC000F894DEBF0FBECDBFDF91CF911F910F917F
:100FD000FF90EF90DF90CF90BF90AF909F908F9059
:100FE0007F906F905F904F903F902F9008958EE18B
:100FF0000E947602019709F074CF70CF80E20E94C0
:101000007602019709F076CF72CF82E20E947602D3
:10101000019709F078CF74CF84E20E94760201979D
:1010200009F07CCF76CFC701B6010E94400567E08A
:101030008FEF0E94100561E084E00E949F02C801CA
:101040000197F1F760E084E00E949F0263E08FEF78
:101050000E94100583E00E946F04C301B2010E9448
:101060004005C501B4010E94400561E084E00E9492
:101070009F02C8010197F1F760E084E00E949F029F
:101080002A94211025CFD701C601B695A79597952B
:101090008795B701A601440F551F661F771F842B44
:1010A000952BA62BB72BC82AD92AEA2AFB2AD301CB
:1010B000C20142E0B695A795979587954A95D1F7D5
:1010C000482A592A6A2A7B2AD501C40152E0880F8E
:1010D000991FAA1FBB1F5A95D1F7882A992AAA2AB5
:1010E000BB2A3A943110EECE0E9420056AE070E0EF
:1010F00080E090E00E94F2020E94200508E017E0E4
:1011000041E4F42E52E4E52E63E4D62E74E4C72EB7
:10111000E5E4BE2EF6E4AF2E86E10E94760201974A
:1011200009F022C2F092080288E10E94760201973B
:1011300009F021C2E09208028AE10E94760201973A
:1011400009F020C2D09208028CE10E947602019739
:1011500009F01FC2C09208021092370286E20E9474
:101160007602019711F4B092080288E20E9476029A
:10117000019711F4A092080282EE92E00E948E0381
:10118000892B31F082EE92E00E946C03809308027A
:1011900060910802809136026813E3CEC8010E9474
:1011A000610564E170E080E090E00E94F2020A5084
:1011B0001109083785E0180709F0AECFBBE03B2ED8
:1011C000C12CD12C80E8E82EF12C97E0492E512C2F
:1011D000612C712C812C2CE0922EA12CB12C36E4A8
:1011E000232E88E097E00E94610586E10E94760246
:1011F000019709F0D5C181E48093080288E10E943B
:101200007602019709F0D3C182E4809308028AE153
:101210000E947602019709F0D1C183E4809308020D
:101220008CE10E947602019709F0CFC184E480939B
:1012300008021092370286E20E947602019719F4A2
:1012400085E48093080288E20E947602019711F4F7
:101250002092080282EE92E00E948E03892B31F0E8
:1012600082EE92E00E946C03809308026091080273
:1012700080913602681375CEC501B4010E94400505
:10128000C301B2010E944D05C701B6010E9440058D
:1012900061E084E00E949F0287E090E00197F1F70F
:1012A00060E084E00E949F0268E770E080E090E0E8
:1012B0000E94F202D501C401B695A795979587952E
:1012C000B501A401440F551F661F771F842B952B72
:1012D000A62BB72B882A992AAA2ABB2AD301C20196
:1012E000F2E0880F991FAA1FBB1FFA95D1F7482A71
:1012F000592A6A2A7B2AA2E0F694E794D794C794E5
:10130000AA95D1F780ECE82A3A9431106ACF0E946E
:1013100020056AE070E080E090E00E94F2020E9406
:10132000200588E0E82E87E0F82E91E4D92E22E40B
:10133000C22E33E4B32E44E4A42E55E4952E66E485
:10134000862E86E10E947602019709F045C1D0926F
:10135000080288E10E947602019709F044C1C09218
:1013600008028AE10E947602019709F043C1B09217
:1013700008028CE10E947602019709F042C1A09216
:1013800008021092370286E20E947602019711F459
:101390009092080288E20E947602019711F48092EE
:1013A000080282EE92E00E948E03892B31F082EED9
:1013B00092E00E946C038093080260910802809181
:1013C00036026813CECDC7010E9461056EE170E060
:1013D00080E090E00E94F20288E0E81AF10880E7DD
:1013E000E81685E0F80609F0ACCF61E4F62E72E469
:1013F000E72EE3E4DE2EF4E4CF2EA5E4BA2EB6E425
:10140000AB2E86E10E947602019709F001C1F092AD
:10141000080288E10E947602019709F000C1E0927B
:1014200008028AE10E947602019709F0FFC0D0927B
:1014300008028CE10E947602019709F0FEC0C0927A
:1014400008021092370286E20E947602019711F498
:10145000B092080288E20E947602019711F4A092ED
:10146000080282EE92E00E948E03892B31F082EE18
:1014700092E00E946C0380930802609108028091C0
:10148000360268136ECDC8010E9461056EE170E0FE
:1014900080E090E00E94F202085F1F4F003187E079
:1014A000180709F0AECF08E017E081E4F82E92E4C7
:1014B000E92E23E4D22E34E4C32E45E4B42E56E4C0
:1014C000A52E86E10E947602019709F0BDC0F09238
:1014D000080288E10E947602019709F0BCC0E09200
:1014E00008028AE10E947602019709F0BBC0D092FF
:1014F00008028CE10E947602019709F0BAC0C092FE
:1015000008021092370286E20E947602019711F4D7
:10151000B092080288E20E947602019711F4A0922C
:10152000080282EE92E00E948E03892B31F082EE57
:1015300092E00E946C0380930802609108028091FF
:10154000360268130ECDC8010E9461056EE170E09D
:1015500080E090E00E94F20208501109003785E017
:10156000180709F0AECF2ACD8EE10E9476020197CE
:1015700009F0DACDD7CD80E20E947602019709F01A
:10158000DBCDD8CD82E20E947602019709F0DCCD56
:10159000D9CD84E20E947602019709F0DFCDDACD41
:1015A0008EE10E947602019709F028CE24CE80E2D7
:1015B0000E947602019709F02ACE26CE82E20E948E
:1015C0007602019709F02CCE28CE84E20E947602A2
:1015D000019709F030CE2ACE8EE10E947602019763
:1015E00009F0B7CEB4CE80E20E947602019709F0EE
:1015F000B8CEB5CE82E20E947602019709F0B9CE4C
:10160000B6CE84E20E947602019709F0BCCEB7CE36
:101610008EE10E947602019709F0FBCEF8CE80E2BF
:101620000E947602019709F0FCCEF9CE82E20E9478
:101630007602019709F0FDCEFACE84E20E9476028E
:10164000019709F000CFFBCE8EE10E947602019750
:1016500009F03FCF3CCF80E20E947602019709F06B
:1016600040CF3DCF82E20E947602019709F041CF40
:101670003ECF84E20E947602019709F044CF3FCF2B
:101680002F923F924F925F926F927F928F929F9292
:10169000AF92BF92CF92DF92EF92FF920F931F9380
:1016A000CF93DF93CDB7DEB766970FB6F894DEBF62
:1016B0000FBECDBF88EE93E00E94610568EC70E03C
:1016C00080E090E00E94F2020E94300580EB94E0FE
:1016D0000E94610564E670E080E090E00E94F20202
:1016E00080E090E0A6E9B4E48093040290930502C0
:1016F000A0930602B093070280E090E8ADEEB4E458
:101700008093000290930102A0930202B09303021F
:1017100010E000E0A7E02A2E312C86E10E9476023C
:10172000019709F089C081E48093080288E10E9452
:101730007602019709F087C082E4809308028AE16B
:101740000E947602019709F085C083E48093080225
:101750008CE10E947602019709F083C084E48093B3
:1017600008021092370286E20E947602019719F46D
:1017700085E48093080288E20E947602019719F4BA
:1017800086E48093080282EE92E00E948E03892B09
:1017900031F082EE92E00E946C0380930802609127
:1017A000080280913602681709F462C0609336021D
:1017B000CE010D960E94F906CE0101960E94EC061C
:1017C000BE016F5F7F4FCE0107960E941A07BE01D0
:1017D000635F7F4FCE0107960E9485060E94F80541
:1017E000CE0107960E945506CE0101960E9455062D
:1017F000CE010D960E94550680910802843419F09E
:1018000081E08093370266960FB6F894DEBF0FBE74
:10181000CDBFDF91CF911F910F91FF90EF90DF909F
:10182000CF90BF90AF909F908F907F906F905F9080
:101830004F903F902F9008958EE10E94760201977D
:1018400009F074CF70CF80E20E947602019709F010
:1018500076CF72CF82E20E947602019709F078CFAC
:1018600074CF84E20E947602019709F07CCF76CF94
:1018700060E770E883E090E00E94400580E00E940D
:101880006F0481E00E946F0463E08FEF0E941005F7
:1018900080E80E946F0480E00E946F0461E084E0B1
:1018A0000E949F02C1010197F1F760E084E00E946D
:1018B0009F0260EF7FEF83E090E00E94400580E0B0
:1018C0000E946F0481E00E946F048CEF0E946F04FD
:1018D00080E00E946F048FE30E946F0480E80E9402
:1018E0006F0480E00E946F0461E084E00E949F0228
:1018F000C1010197F1F760E084E00E949F02C801F6
:101900006EE170E00E94AA21892B09F041C0B80164
:1019100090E080E00E94A11F6B017C0140900002DA
:1019200050900102609002027090030280900402C5
:1019300090900502A0900602B0900702A5019401C4
:10194000C301B2010E949C206B8B7C8B8D8B9E8B84
:10195000053F81E0180708F016C620E030E04AE7AE
:1019600054E4C701B6010E9409219B01AC010E9409
:101970009D202B893C894D895E890E94DE1FA5012F
:1019800094010E949D200E947B21CB010E94610551
:101990000F5F1F4F083E83E0180709F0BECE6AE0D4
:1019A00070E080E090E00E94F202312C212C05E4EE
:1019B00016E486E10E947602019709F00AC681E4E6
:1019C0008093080288E10E947602019709F008C618
:1019D00082E4809308028AE10E947602019709F06E
:1019E00006C683E4809308028CE10E947602019788
:1019F00009F004C684E4809308021092370286E25C
:101A00000E947602019711F40093080288E20E9476
:101A10007602019711F41093080282EE92E00E9480
:101A20008E03892B31F082EE92E00E946C0380934A
:101A3000080260910802809136026813B7CE60E810
:101A40007FE780E090E00E94400562E080E00E9435
:101A5000100583E00E946F048FEF0E946F0480ECFA
:101A60000E946F0462E080E00E94100561E084E063
:101A70000E949F0287E090E00197F1F760E084E028
:101A80000E949F02C1016EE170E00E94AA21892B91
:101A900009F042C0B10190E080E00E94A11F6B01FB
:101AA0007C01409000025090010260900202709010
:101AB00003028090040290900502A0900602B0906C
:101AC0000702A5019401C301B2010E949C206B8B07
:101AD0007C8B8D8B9E8B8DEB281682E0380608F070
:101AE00094C520E030E04FEA54E4C701B6010E94FB
:101AF00009219B01AC010E949D202B893C894D89C5
:101B00005E890E94DE1FA50194010E949D200E9413
:101B10007B21CB010E9461058FEF281A380A88E7E4
:101B2000281685E0380609F044CF6AE070E080E0CE
:101B300090E00E94F20210E000E086E10E9476024E
:101B4000019709F088C581E48093080288E10E942A
:101B50007602019709F086C582E4809308028AE143
:101B60000E947602019709F084C583E480930802FD
:101B70008CE10E947602019709F082C584E480938B
:101B800008021092370286E20E947602019719F449
:101B900085E48093080288E20E947602019719F496
:101BA00086E48093080282EE92E00E948E03892BE5
:101BB00031F082EE92E00E946C0380930802609103
:101BC0000802809136026813F1CD6FEF7FEF8FEF3F
:101BD00090E00E94400583E00E946F0465E080E091
:101BE0000E94100583E00E946F0461E084E00E947F
:101BF0009F0287E090E00197F1F760E084E00E94A7
:101C00009F02C8016EE170E00E94AA21892B09F0B1
:101C100041C0B80190E080E00E94A11F6B017C01EF
:101C20004090000250900102609002027090030206
:101C30008090040290900502A0900602B0900702E6
:101C4000A5019401C301B2010E949C206B8B7C8B87
:101C50008D8B9E8B093582E0180708F018C520E0AF
:101C600030E046E954E4C701B6010E9409219B0116
:101C7000AC010E949D202B893C894D895E890E9480
:101C8000DE1FA50194010E949D200E947B21CB01B3
:101C90000E9461050F5F1F4F003B84E0180709F0A9
:101CA0004CCF6AE070E080E090E00E94F20210E029
:101CB00000E086E10E947602019709F00EC581E4FA
:101CC0008093080288E10E947602019709F00CC512
:101CD00082E4809308028AE10E947602019709F06B
:101CE0000AC583E4809308028CE10E947602019782
:101CF00009F008C584E4809308021092370286E256
:101D00000E947602019719F485E48093080288E224
:101D10000E947602019719F486E48093080282EE0D
:101D200092E00E948E03892B31F082EE92E00E94B5
:101D30006C03809308026091080280913602681358
:101D400035CD60EF7FEF83E090E00E94400565E0D5
:101D500080E00E9410058FE70E946F048CEF0E94C4
:101D60006F0461E084E00E949F0287E090E00197A9
:101D7000F1F760E084E00E949F02C8016EE170E02C
:101D80000E94AA21892B09F041C0B80190E080E0AF
:101D90000E94A11F6B017C01409000025090010243
:101DA00060900202709003028090040290900502FD
:101DB000A0900602B0900702A5019401C301B201F0
:101DC0000E949C206B8B7C8B8D8B9E8B093582E0D7
:101DD000180708F09EC420E030E046E954E4C7014B
:101DE000B6010E9409219B01AC010E949D202B8914
:101DF0003C894D895E890E94DE1FA50194010E94E5
:101E00009D200E947B21CB010E9461050F5F1F4F27
:101E1000003B84E0180709F04CCF6AE070E080E0F6
:101E200090E00E94F20210E000E086E10E9476025B
:101E3000019709F094C481E48093080288E10E942C
:101E40007602019709F092C482E4809308028AE145
:101E50000E947602019709F090C483E480930802FF
:101E60008CE10E947602019709F08EC484E480938D
:101E700008021092370286E20E947602019719F456
:101E800085E48093080288E20E947602019719F4A3
:101E900086E48093080282EE92E00E948E03892BF2
:101EA00031F082EE92E00E946C0380930802609110
:101EB000080280913602681379CC6CE070E0CB01A7
:101EC0000E94400580E00E946F0465E08FEF0E9451
:101ED00010058CEF0E946F0461E084E00E949F0275
:101EE00087E090E00197F1F760E084E00E949F02B4
:101EF000C8016EE170E00E94AA21892B09F041C05F
:101F0000B80190E080E00E94A11F6B017C0140902D
:101F100000025090010260900202709003028090D3
:101F2000040290900502A0900602B0900702A5015D
:101F30009401C301B2010E949C206B8B7C8B8D8B22
:101F40009E8B093582E0180708F025C420E030E0B8
:101F500046E954E4C701B6010E9409219B01AC0186
:101F60000E949D202B893C894D895E890E94DE1F3D
:101F7000A50194010E949D200E947B21CB010E941B
:101F800061050F5F1F4F003B84E0180709F04DCF3C
:101F90006AE070E080E090E00E94F20210E000E071
:101FA00086E10E947602019709F01BC481E48093C8
:101FB000080288E10E947602019709F019C482E4C0
:101FC000809308028AE10E947602019709F017C403
:101FD00083E4809308028CE10E947602019709F065
:101FE00015C484E4809308021092370286E20E94AE
:101FF0007602019719F485E48093080288E20E9432
:102000007602019719F486E48093080282EE92E04A
:102010000E948E03892B31F082EE92E00E946C03C5
:102020008093080260910802809136026813BECB4B
:1020300060EF7FEF83E090E00E94400580E00E9427
:102040006F048EEF0E946F0465E080E00E9410052F
:1020500061E084E00E949F0287E090E00197F1F741
:1020600060E084E00E949F02C8016EE170E00E947F
:10207000AA21892B09F041C0B80190E080E00E94BC
:10208000A11F6B017C014090000250900102609002
:102090000202709003028090040290900502A090CA
:1020A0000602B0900702A5019401C301B2010E948B
:1020B0009C206B8B7C8B8D8B9E8B093582E0180767
:1020C00008F0ABC320E030E046E954E4C701B601B4
:1020D0000E9409219B01AC010E949D202B893C8913
:1020E0004D895E890E94DE1FA50194010E949D20FA
:1020F0000E947B21CB010E9461050F5F1F4F003BB7
:1021000084E0180709F04CCF6AE070E080E090E0CE
:102110000E94F20210E000E086E10E947602019740
:1021200009F0A1C381E48093080288E10E9476024D
:10213000019709F09FC382E4809308028AE10E941C
:102140007602019709F09DC383E4809308028CE135
:102150000E947602019709F09BC384E480930802F1
:102160001092370286E20E947602019719F485E404
:102170008093080288E20E947602019719F486E4AF
:102180008093080282EE92E00E948E03892B31F048
:1021900082EE92E00E946C03809308026091080234
:1021A00080913602681302CB63E070E080E390E038
:1021B0000E94400567E08FEF0E94100561E084E017
:1021C0000E949F0287E090E00197F1F760E084E0D1
:1021D0000E949F02C8016EE170E00E94AA21892B33
:1021E00009F041C0B80190E080E00E94A11F6B019E
:1021F0007C014090000250900102609002027090B9
:1022000003028090040290900502A0900602B09014
:102210000702A5019401C301B2010E949C206B8BAF
:102220007C8B8D8B9E8B093582E0180708F037C3B5
:1022300020E030E046E954E4C701B6010E940921DC
:102240009B01AC010E949D202B893C894D895E89B0
:102250000E94DE1FA50194010E949D200E947B2107
:10226000CB010E9461050F5F1F4F003B84E0180700
:1022700009F052CF6AE070E080E090E00E94F20244
:102280000E9420050E94200508E715E041E4F42E95
:1022900052E4E52E63E4D62E74E4C72EE5E4BE2EA8
:1022A000F6E4AF2E86E10E947602019709F01DC385
:1022B000F092080288E10E947602019709F01CC39F
:1022C000E09208028AE10E947602019709F01BC39E
:1022D000D09208028CE10E947602019709F01AC39D
:1022E000C09208021092370286E20E94760201979D
:1022F00011F4B092080288E20E947602019711F46C
:10230000A092080282EE92E00E948E03892B31F0A7
:1023100082EE92E00E946C038093080260910802B2
:1023200080913602681342CAC8010E9461056EE1BD
:1023300070E080E090E00E94F202085F1F4F0031E1
:1023400087E0180709F0AECF08E017E0A1E4FA2E05
:10235000B2E4EB2E83E4D82E94E4C92E25E4B22E09
:1023600036E4A32E86E10E947602019709F0D9C2D5
:10237000F092080288E10E947602019709F0D8C223
:10238000E09208028AE10E947602019709F0D7C222
:10239000D09208028CE10E947602019709F0D6C221
:1023A000C09208021092370286E20E9476020197DC
:1023B00011F4B092080288E20E947602019711F4AB
:1023C000A092080282EE92E00E948E03892B31F0E7
:1023D00082EE92E00E946C038093080260910802F2
:1023E000809136026813E2C9C8010E9461056EE15E
:1023F00070E080E090E00E94F2020850110900377E
:1024000085E0180709F0AECF11E402E463E4F62E8C
:1024100074E4E72EE5E4DE2EF6E4CF2E86E10E949A
:102420007602019709F099C21093080288E10E9490
:102430007602019709F098C2009308028AE10E948F
:102440007602019709F097C2F09208028CE10E948F
:102450007602019709F096C2E092080210923702C4
:1024600086E20E947602019711F4D092080288E277
:102470000E947602019711F4C092080282EE92E067
:102480000E948E03892B31F082EE92E00E946C0351
:10249000809308026091080280913602681386C911
:1024A000C1010E9461056EE170E080E090E00E9451
:1024B000F20288E0280E311C80E1281687E03806F9
:1024C00009F0ACCF08E017E081E4F82E92E4E92EA1
:1024D00023E4D22E34E4C32E45E4B42E56E4A52ED4
:1024E00086E10E947602019709F053C2F092080239
:1024F00088E10E947602019709F052C2E092080238
:102500008AE10E947602019709F051C2D092080236
:102510008CE10E947602019709F050C2C092080235
:102520001092370286E20E947602019711F4B0926F
:10253000080288E20E947602019711F4A092080234
:1025400082EE92E00E948E03892B31F082EE92E0BF
:102550000E946C0380930802609108028091360209
:10256000681324C9C8010E9461056EE170E080E033
:1025700090E00E94F20208501109003785E0180728
:1025800009F0AECF40C9C701B601905820E030E055
:102590004AE754E40E9409219B01AC010E949D205E
:1025A0002B893C894D895E890E94DE1F6B017C016D
:1025B000A3019201C301B2010E949D209B01AC01C5
:1025C000C701B6010E949D20A50194010E949C2094
:1025D000DAC98EE10E947602019709F0F3C9EFC9CA
:1025E00080E20E947602019709F0F5C9F1C982E202
:1025F0000E947602019709F0F7C9F3C984E20E94AC
:102600007602019709F0FBC9F5C9C701B6019058D8
:1026100020E030E04FEA54E40E9409219B01AC0124
:102620000E949D202B893C894D895E890E94DE1F76
:102630006B017C01A3019201C301B2010E949D20A4
:102640009B01AC01C701B6010E949D20A501940128
:102650000E949C205CCA8EE10E947602019709F0DC
:1026600075CA71CA80E20E947602019709F077CAA2
:1026700073CA82E20E947602019709F079CA75CA8C
:1026800084E20E947602019709F07DCA77CAC701E9
:10269000B601905820E030E046E954E40E94092158
:1026A0009B01AC010E949D202B893C894D895E894C
:1026B0000E94DE1F6B017C01A3019201C301B201E4
:1026C0000E949D209B01AC01C701B6010E949D2084
:1026D000A50194010E949C20D8CA8EE10E94760236
:1026E000019709F0EFCAEBCA80E20E9476020197D7
:1026F00009F0F1CAEDCA82E20E947602019709F060
:10270000F3CAEFCA84E20E947602019709F0F7CA81
:10271000F1CAC701B601905820E030E046E954E420
:102720000E9409219B01AC010E949D202B893C89BC
:102730004D895E890E94DE1F6B017C01A30192011D
:10274000C301B2010E949D209B01AC01C701B601EB
:102750000E949D20A50194010E949C2052CB8EE1F5
:102760000E947602019709F069CB65CB80E20E9456
:102770007602019709F06BCB67CB82E20E9476026A
:10278000019709F06DCB69CB84E20E947602019734
:1027900009F071CB6BCBC701B601905820E030E057
:1027A00046E954E40E9409219B01AC010E949D204E
:1027B0002B893C894D895E890E94DE1F6B017C015B
:1027C000A3019201C301B2010E949D209B01AC01B3
:1027D000C701B6010E949D20A50194010E949C2082
:1027E000CBCB8EE10E947602019709F0E2CBDECBE3
:1027F00080E20E947602019709F0E4CBE0CB82E20E
:102800000E947602019709F0E6CBE2CB84E20E94B7
:102810007602019709F0EACBE4CBC701B6019058E4
:1028200020E030E046E954E40E9409219B01AC011C
:102830000E949D202B893C894D895E890E94DE1F64
:102840006B017C01A3019201C301B2010E949D2092
:102850009B01AC01C701B6010E949D20A501940116
:102860000E949C2045CC8EE10E947602019709F0DF
:102870005CCC58CC80E20E947602019709F05ECCD5
:102880005ACC82E20E947602019709F060CC5CCCBF
:1028900084E20E947602019709F064CC5ECCC70105
:1028A000B601905820E030E046E954E40E94092146
:1028B0009B01AC010E949D202B893C894D895E893A
:1028C0000E94DE1F6B017C01A3019201C301B201D2
:1028D0000E949D209B01AC01C701B6010E949D2072
:1028E000A50194010E949C20B9CC8EE10E94760241
:1028F000019709F0DFCCDCCC80E20E9476020197E0
:1029000009F0E0CCDDCC82E20E947602019709F06A
:10291000E1CCDECC84E20E947602019709F0E4CC9F
:10292000DFCC8EE10E947602019709F023CD20CD05
:1029300080E20E947602019709F024CD21CD82E247
:102940000E947602019709F025CD22CD84E20E94F3
:102950007602019709F028CD23CD8EE10E94760200
:10296000019709F063CD60CD80E20E947602019765
:1029700009F064CD61CD82E20E947602019709F0F0
:1029800065CD62CD84E20E947602019709F068CDA0
:1029900063CD8EE10E947602019709F0A9CDA6CD04
:1029A00080E20E947602019709F0AACDA7CD82E2CB
:1029B0000E947602019709F0ABCDA8CD84E20E9477
:1029C0007602019709F0AECDA9CD2F923F924F929A
:1029D0005F926F927F928F929F92AF92BF92CF92AF
:1029E000DF92EF92FF920F931F93CF93DF93CDB7B8
:1029F000DEB762970FB6F894DEBF0FBECDBF0E9460
:102A000030056CE271E080E090E00E94F20210E29A
:102A1000C12CD12C7601C39401E452E4952E63E4D9
:102A2000862E74E4772EE5E46E2EF6E45F2EA7E0A2
:102A3000AA2EB12C86E10E947602019709F083C08C
:102A40000093080288E10E947602019709F082C093
:102A5000909208028AE10E947602019709F081C0F3
:102A6000809208028CE10E947602019709F080C0F2
:102A7000709208021092370286E20E947602019755
:102A800011F46092080288E20E947602019711F424
:102A90005092080282EE92E00E948E03892B31F060
:102AA00082EE92E00E946C0380930802609108021B
:102AB00080913602681709F462C060933602CE0135
:102AC0000D960E94F906CE0101960E94EC06BE0109
:102AD0006F5F7F4FCE0107960E941A07BE01635FAA
:102AE0007F4FCE0107960E9485060E94F805CE0111
:102AF00007960E945506CE0101960E945506CE010A
:102B00000D960E94550680910802843419F081E0E8
:102B10008093370262960FB6F894DEBF0FBECDBF2A
:102B2000DF91CF911F910F91FF90EF90DF90CF90A9
:102B3000BF90AF909F908F907F906F905F904F90DD
:102B40003F902F9008958EE10E947602019709F040
:102B500079CF76CF80E20E947602019709F07ACF92
:102B600077CF82E20E947602019709F07BCF78CF7F
:102B700084E20E947602019709F07ECF79CF88E047
:102B800097E00E94610563E08FEF0E94100563E00B
:102B900080E00E941005C701B6010E944D0561E06A
:102BA00084E00E949F02C5010197F1F760E084E094
:102BB0000E949F02CC0CDD1CEE1CFF1C6894C0F828
:102BC00064E670E080E090E00E94F202115009F0AB
:102BD00031CF12E1C12CD12C7601C39401E4F2E48F
:102BE0009F2EA3E48A2EB4E47B2E85E4682E96E41F
:102BF000592E27E0A22EB12C86E10E947602019781
:102C000009F04BC30093080288E10E947602019705
:102C100009F04AC3909208028AE10E947602019765
:102C200009F049C3809208028CE10E947602019764
:102C300009F048C3709208021092370286E20E949F
:102C40007602019711F46092080288E20E947602EF
:102C5000019711F45092080282EE92E00E948E03D6
:102C6000892B31F082EE92E00E946C03809308027F
:102C7000609108028091360268131FCF63E08FEFE6
:102C80000E941005C701B6010E94400564E08FEF65
:102C90000E94100561E084E00E949F02C501019737
:102CA000F1F760E084E00E949F02CC0CDD1CEE1C7A
:102CB000FF1C6894C0F864E670E080E090E00E9439
:102CC000F202115009F098CF08E017E091E4F92ED4
:102CD00022E4E22E33E4D32E44E4C42E55E4B52E90
:102CE00066E4A62E86E10E947602019709F0F1C201
:102CF000F092080288E10E947602019709F0F0C282
:102D0000E09208028AE10E947602019709F0EFC280
:102D1000D09208028CE10E947602019709F0EEC27F
:102D2000C09208021092370286E20E947602019752
:102D300011F4B092080288E20E947602019711F421
:102D4000A092080282EE92E00E948E03892B31F05D
:102D500082EE92E00E946C03809308026091080268
:102D6000809136026813A9CEC8010E9461056EE108
:102D700070E080E090E00E94F202085011090037F4
:102D800085E0180709F0AECF0E943005E7E17E2EFE
:102D9000C12CD12C7601F3E08F2E912CA12CB12CDB
:102DA000A2E46A2EB3E45B2E14E4412E05E4302E37
:102DB00086E4282E07E010E086E10E947602019763
:102DC00009F0A3C281E48093080288E10E947602A0
:102DD000019709F0A1C2609208028AE10E9476027E
:102DE000019709F0A0C2509208028CE10E9476027D
:102DF000019709F09FC2409208021092370286E2C2
:102E00000E947602019711F43092080288E20E9433
:102E10007602019711F42092080282EE92E00E945D
:102E20008E03892B31F082EE92E00E946C03809336
:102E30000802609108028091360268133ECE88E055
:102E400097E00E94610563E08FEF0E94100580E02B
:102E50000E946F04C501B4010E944005C701B6017C
:102E60000E94400561E084E00E949F02C801019732
:102E7000F1F760E084E00E949F02880C991CAA1C74
:102E8000BB1C87E0882AF694E794D794C79468948B
:102E9000E7F868E770E080E090E00E94F2027A9440
:102EA00071108ACF86E10E947602019709F049C22B
:102EB00081E48093080288E10E947602019709F07C
:102EC00047C282E4809308028AE10E947602019759
:102ED00009F045C283E4809308028CE10E947602E7
:102EE000019709F043C284E48093080210923702EC
:102EF00086E20E947602019719F485E48093080225
:102F000088E20E947602019719F486E48093080211
:102F100082EE92E00E948E03892B31F082EE92E0E5
:102F20000E946C038093080260910802809136022F
:102F30006813C3CD63E08FEF0E94100581E00E940B
:102F40006F046FEF7FEF8FEF90E00E9440056EEF10
:102F50007FEF8FEF90E00E94400561E084E00E94E7
:102F60009F0287E090E00197F1F760E084E00E9423
:102F70009F0268E770E080E090E00E94F20286E144
:102F80000E947602019709F0F8C181E4809308025B
:102F900088E10E947602019709F0F6C182E48093ED
:102FA00008028AE10E947602019709F0F4C183E4E5
:102FB000809308028CE10E947602019709F0F2C129
:102FC00084E4809308021092370286E20E9476021F
:102FD000019719F485E48093080288E20E94760242
:102FE000019719F486E48093080282EE92E00E9431
:102FF0008E03892B31F082EE92E00E946C03809365
:1030000008026091080280913602681356CD63E091
:103010008FEF0E94100583E00E946F046FEF7FEF37
:103020008FEF90E00E9440056FEF7FEF8FEF90E011
:103030000E94400561E084E00E949F0287E090E0EA
:103040000197F1F760E084E00E949F0268E770E07A
:1030500080E090E00E94F20208E017E081E4F82EA0
:1030600092E4E92E23E4D22E34E4C32E45E4B42EB8
:1030700056E4A52E86E10E947602019709F099C1D7
:10308000F092080288E10E947602019709F098C147
:10309000E09208028AE10E947602019709F097C146
:1030A000D09208028CE10E947602019709F096C145
:1030B000C09208021092370286E20E9476020197BF
:1030C00011F4B092080288E20E947602019711F48E
:1030D000A092080282EE92E00E948E03892B31F0CA
:1030E00082EE92E00E946C038093080260910802D5
:1030F000809136026813E1CCC8010E9461056EE13F
:1031000070E080E090E00E94F20208501109003760
:1031100085E0180709F0AECF08E715E061E4F62E68
:1031200072E4E72EE3E4DE2EF4E4CF2EA5E4BA2E1B
:10313000B6E4AB2E86E10E947602019709F055C1F4
:10314000F092080288E10E947602019709F054C1CA
:10315000E09208028AE10E947602019709F053C1C9
:10316000D09208028CE10E947602019709F052C1C8
:10317000C09208021092370286E20E9476020197FE
:1031800011F4B092080288E20E947602019711F4CD
:10319000A092080282EE92E00E948E03892B31F009
:1031A00082EE92E00E946C03809308026091080214
:1031B00080913602681381CCC8010E9461056EE1DE
:1031C00070E080E090E00E94F202085F1F4F003143
:1031D00087E0180709F0AECF08E017E081E4F82E89
:1031E00092E4E92E23E4D22E34E4C32E45E4B42E37
:1031F00056E4A52E86E10E947602019709F011C1DE
:10320000F092080288E10E947602019709F010C14D
:10321000E09208028AE10E947602019709F00FC14C
:10322000D09208028CE10E947602019709F00EC14B
:10323000C09208021092370286E20E94760201973D
:1032400011F4B092080288E20E947602019711F40C
:10325000A092080282EE92E00E948E03892B31F048
:1032600082EE92E00E946C03809308026091080253
:1032700080913602681321CCC8010E9461056EE17D
:1032800070E080E090E00E94F202085011090037DF
:1032900085E0180709F0AECF3DCC8EE10E947602A2
:1032A000019709F0B1CCAECC80E20E947602019782
:1032B00009F0B2CCAFCC82E20E947602019709F00D
:1032C000B3CCB0CC84E20E947602019709F0B6CC70
:1032D000B1CC8EE10E947602019709F00BCD08CDAA
:1032E00080E20E947602019709F00CCD09CD82E2BE
:1032F0000E947602019709F00DCD0ACD84E20E946A
:103300007602019709F010CD0BCD8EE10E94760276
:10331000019709F05ACD56CD80E20E9476020197BE
:1033200009F05BCD58CD82E20E947602019709F048
:103330005CCD59CD84E20E947602019709F05FCD01
:103340005ACD8EE10E947602019709F0B4CDB0CD3E
:1033500080E20E947602019709F0B6CDB2CD82E2FA
:103360000E947602019709F0B8CDB4CD84E20E94A4
:103370007602019709F0BCCDB6CD8EE10E947602AF
:10338000019709F005CE01CE80E20E9476020197F6
:1033900009F007CE03CE82E20E947602019709F07F
:1033A00009CE05CE84E20E947602019709F00DCE87
:1033B00007CE8EE10E947602019709F063CE60CEBF
:1033C00080E20E947602019709F064CE61CE82E22B
:1033D0000E947602019709F065CE62CE84E20E94D7
:1033E0007602019709F068CE63CE8EE10E947602E4
:1033F000019709F0A7CEA4CE80E20E947602019741
:1034000009F0A8CEA5CE82E20E947602019709F0CB
:10341000A9CEA6CE84E20E947602019709F0ACCE36
:10342000A7CE8EE10E947602019709F0EBCEE8CE9E
:1034300080E20E947602019709F0ECCEE9CE82E2AA
:103440000E947602019709F0EDCEEACE84E20E9456
:103450007602019709F0F0CEEBCE1F920F920FB6D5
:103460000F9211242F933F938F939F93AF93BF930A
:1034700080913D0290913E02A0913F02B0914002A6
:1034800030913C0223E0230F2D3758F50196A11D02
:10349000B11D20933C0280933D0290933E02A09385
:1034A0003F02B09340028091410290914202A0916C
:1034B0004302B09144020196A11DB11D80934102C7
:1034C00090934202A0934302B0934402BF91AF9104
:1034D0009F918F913F912F910F900FBE0F901F9052
:1034E000189526E8230F0296A11DB11DD2CF1F9279
:1034F0000F920FB60F9211240BB60F922F933F939A
:103500004F935F936F937F938F939F93AF93BF93EB
:10351000EF93FF9385E492E00E94AE03FF91EF9159
:10352000BF91AF919F918F917F916F915F914F91DB
:103530003F912F910F900BBE0F900FBE0F901F90D9
:1035400018951F920F920FB60F9211240BB60F927F
:103550002F938F939F93EF93FF93E0915502F091F8
:1035600056028081E0915B02F0915C0282FD1DC0F9
:10357000908180915E028F5F8F7320915F0282172E
:1035800041F0E0915E02F0E0EB5BFD4F958F8093A0
:103590005E02FF91EF919F918F912F910F900BBE43
:1035A0000F900FBE0F901F9018958081F2CF1F9241
:1035B0000F920FB60F9211240BB60F922F933F93D9
:1035C0004F935F936F937F938F939F93AF93BF932B
:1035D000EF93FF9382EE92E00E94AE03FF91EF9192
:1035E000BF91AF919F918F917F916F915F914F911B
:1035F0003F912F910F900BBE0F900FBE0F901F9019
:1036000018951F920F920FB60F9211240BB60F92BE
:103610002F938F939F93EF93FF93E091F202F0919A
:10362000F3028081E091F802F091F90282FD1DC061
:1036300090818091FB028F5F8F732091FC02821733
:1036400041F0E091FB02F0E0EE51FD4F958F809349
:10365000FB02FF91EF919F918F912F910F900BBEE5
:103660000F900FBE0F901F9018958081F2CFE5E468
:10367000F2E01382128248EE53E060E070E044838F
:1036800055836683778383E192E0918380832DEC79
:1036900030E0358724872CEC30E03787268728EC0C
:1036A00030E0318B208B29EC30E0338B228B2AECFD
:1036B00030E0358B248B2EEC30E0378B268B118E4F
:1036C000128E138E148EE2EEF2E013821282448385
:1036D0005583668377839183808385EC90E095871B
:1036E000848784EC90E09787868780EC90E0918BCC
:1036F000808B81EC90E0938B828B82EC90E0958BB9
:10370000848B86EC90E0978B868B118E128E138EB5
:10371000148EEFE7F3E081E290E1918380831382DE
:1037200012821582148217821682108611861286E2
:10373000148615861686178681E083870895CF93B1
:10374000DF93CDB7DEB762970FB6F894DEBF0FBE3A
:10375000CDBF789484B5826084BD84B5816084BD1A
:1037600085B5826085BD85B5816085BD80916E001F
:10377000816080936E001092810080918100826050
:10378000809381008091810081608093810080918D
:1037900080008160809380008091B100846080937C
:1037A000B1008091B00081608093B0008091910061
:1037B000826080939100809191008160809391005C
:1037C000809190008160809390008091A100826040
:1037D0008093A1008091A10081608093A1008091DD
:1037E000A00081608093A00080912101826080937D
:1037F000210180912101816080932101809120012C
:1038000081608093200180917A00846080937A00A7
:1038100080917A00826080937A0080917A00816042
:1038200080937A0080917A00806880937A00109269
:10383000C10084E00E948F0183E00E948F0182E03A
:103840000E948F0182EE92E00E94680185E492E07E
:103850000E94680185E090E89093800380937F0345
:103860008FEF9FEF909382038093810310928403E4
:103870001092830381E0809387038093880326E47A
:10388000222E35E4332E14E403E442E4D42E51E432
:10389000C52E812C912C66E9A62E64E4B62E412C0F
:1038A00070E8572E7DEE672E74E4772E8091080223
:1038B000813419F50E942403609338027093390211
:1038C00080933A0290933B020E94E5148DE292E0CD
:1038D0000E94EB050E9424032091380230913902A6
:1038E00040913A0250913B02621B730B840B950B83
:1038F0000E940D060E944204D9CF823479F40E94BE
:103900002403609338027093390280933A029093B3
:103910003B020E94400B80E392E0DACF833479F4DB
:103920000E942403609338027093390280933A0214
:1039300090933B020E94340783E392E0C9CF843422
:1039400051F588E097E00E946105109237020E94CD
:10395000E514809137028111CDCF64E670E080E0FC
:1039600090E00E94F2020E94400B80913702811188
:10397000C1CF64E670E080E090E00E94F2020E9415
:103980003407809137028111B5CF64E670E080E0A2
:1039900090E00E94F20280910802853409F094C000
:1039A00086E10E947602019709F06CC0C09208027D
:1039B00088E10E947602019709F06BC0D09208025C
:1039C0008AE10E947602019709F06AC0009308021A
:1039D0008CE10E947602019709F069C010930802F9
:1039E0001092370286E20E947602019711F430921B
:1039F000080288E20E947602019711F420920802E0
:103A000082EE92E00E948E03892B31F082EE92E0EA
:103A10000E946C0380930802609108028091360234
:103A2000681709F44BC060933602CE0101960E94DC
:103A3000F906CE010D960E94EC06BE01635F7F4F32
:103A4000CE0107960E941A07BE016F5F7F4FCE011D
:103A500007960E9485060E94F805CE0107960E94EF
:103A60005506CE010D960E945506CE0101960E9484
:103A7000550680910802843409F43CCF81E080939C
:103A8000370238CF8EE10E947602019709F090CF7D
:103A90008DCF80E20E947602019709F091CF8ECF00
:103AA00082E20E947602019709F092CF8FCF84E2E2
:103AB0000E947602019709F095CF90CF0E942005D1
:103AC00088E097E00E94610580910802863409F041
:103AD00004C186E10E947602019709F05AC1C092A2
:103AE000080288E10E947602019709F059C1D0923C
:103AF00008028AE10E947602019709F058C10093FA
:103B000008028CE10E947602019709F057C11093D8
:103B100008021092370286E20E947602019711F4A1
:103B20003092080288E20E947602019711F42092F6
:103B3000080282EE92E00E948E03892B31F082EE21
:103B400092E00E946C0380930802609108028091C9
:103B50003602681368CF0E9420058092040290927A
:103B60000502A0920602B092070240920002509213
:103B70000102609202027092030298E7E92E95E03A
:103B8000F92E86E10E947602019709F01EC1C092CB
:103B9000080288E10E947602019709F01DC1D092C7
:103BA00008028AE10E947602019709F01CC1009385
:103BB00008028CE10E947602019709F01BC1109364
:103BC00008021092370286E20E947602019711F4F1
:103BD0003092080288E20E947602019711F4209246
:103BE000080282EE92E00E948E03892B31F082EE71
:103BF00092E00E946C038093080260910802809119
:103C00003602681310CFC7010E9461056EE170E0B3
:103C100080E090E00E94F20288E0E80EF11C80E172
:103C2000E81687E0F80609F0ACCF88E0E82E87E0D8
:103C3000F82E86E10E947602019709F0E2C0C09258
:103C4000080288E10E947602019709F0E1C0D09253
:103C500008028AE10E947602019709F0E0C0009311
:103C600008028CE10E947602019709F0DFC01093F0
:103C700008021092370286E20E947602019711F440
:103C80003092080288E20E947602019711F4209295
:103C9000080282EE92E00E948E03892B31F082EEC0
:103CA00092E00E946C038093080260910802809168
:103CB00036026813B8CEC7010E9461056EE170E05C
:103CC00080E090E00E94F20288E0E81AF10880E7C4
:103CD000E81685E0F80609F0ACCF80910802873439
:103CE00009F0C7C086E10E947602019709F0A5C0DD
:103CF000C092080288E10E947602019709F0A4C0F0
:103D0000D09208028AE10E947602019709F0A3C0CE
:103D1000009308028CE10E947602019709F0A2C08C
:103D2000109308021092370286E20E9476020197F1
:103D300011F43092080288E20E947602019711F491
:103D40002092080282EE92E00E948E03892B31F0CD
:103D500082EE92E00E946C03809308026091080258
:103D60008091360268135FCE63E080E00E94100508
:103D700067E08FEF0E94100561E084E00E949F02DF
:103D800087E090E00197F1F760E084E00E949F02F5
:103D9000B1CD8EE10E947602019709F0A2CE9FCEAE
:103DA00080E20E947602019709F0A3CEA0CE82E2C3
:103DB0000E947602019709F0A4CEA1CE84E20E946F
:103DC0007602019709F0A7CEA2CE8EE10E9476027C
:103DD000019709F0DECEDBCE80E20E9476020197E9
:103DE00009F0DFCEDCCE82E20E947602019709F074
:103DF000E0CEDDCE84E20E947602019709F0E3CEA8
:103E0000DECE8EE10E947602019709F01ACF17CF1D
:103E100080E20E947602019709F01BCF18CF82E260
:103E20000E947602019709F01CCF19CF84E20E940C
:103E30007602019709F01FCF1ACF8EE10E94760219
:103E4000019709F057CF54CF80E20E947602019784
:103E500009F058CF55CF82E20E947602019709F00F
:103E600059CF56CF84E20E947602019709F05CCFC9
:103E700057CF883409F03ECD86E10E947602019743
:103E800009F043C0C092080288E10E9476020197BF
:103E900009F042C0D09208028AE10E94760201979E
:103EA00009F041C0009308028CE10E94760201975C
:103EB00009F040C0109308021092370286E20E9477
:103EC0007602019711F43092080288E20E9476028D
:103ED000019711F42092080282EE92E00E948E0374
:103EE000892B31F082EE92E00E946C0380930802ED
:103EF0006091080280913602681395CD63E08FEFE0
:103F00000E94100567E080E035CF8EE10E947602C6
:103F1000019709F0B9CFB6CF80E20E9476020197EF
:103F200009F0BACFB7CF82E20E947602019709F07A
:103F3000BBCFB8CF84E20E947602019709F0BECFD2
:103F4000B9CFE89409C097FB3EF4909580957095A1
:103F500061957F4F8F4F9F4F9923A9F0F92F96E9D5
:103F6000BB279395F695879577956795B795F1114A
:103F7000F8CFFAF4BB0F11F460FF1BC06F5F7F4FE7
:103F80008F4F9F4F16C0882311F096E911C07723F9
:103F900021F09EE8872F762F05C0662371F096E802
:103FA000862F70E060E02AF09A95660F771F881FD1
:103FB000DAF7880F9695879597F908950E94F11F73
:103FC0000C9462200E94542038F00E945B2020F064
:103FD000952311F00C944B200C94512011240C9437
:103FE00096200E94732070F3959FC1F3950F50E0C7
:103FF000551F629FF001729FBB27F00DB11D639F9B
:10400000AA27F00DB11DAA1F649F6627B00DA11D40
:10401000661F829F2227B00DA11D621F739FB00DE6
:10402000A11D621F839FA00D611D221F749F332756
:10403000A00D611D231F849F600D211D822F762FEF
:104040006A2F11249F5750409AF0F1F088234AF0CC
:10405000EE0FFF1FBB1F661F771F881F9150504038
:10406000A9F79E3F510580F00C944B200C949620AC
:104070005F3FE4F3983ED4F3869577956795B795BF
:10408000F795E7959F5FC1F7FE2B880F911D9695D9
:10409000879597F9089597F99F6780E870E060E049
:1040A00008959FEF80EC089500240A9416161706D1
:1040B00018060906089500240A9412161306140619
:1040C00005060895092E0394000C11F4882352F07C
:1040D000BB0F40F4BF2B11F460FF04C06F5F7F4F34
:1040E0008F4F9F4F089557FD9058440F551F59F01B
:1040F0005F3F71F04795880F97FB991F61F09F3FD5
:1041000079F087950895121613061406551FF2CFFD
:104110004695F1DF08C0161617061806991FF1CF4D
:1041200086957105610508940895E894BB27662774
:104130007727CB0197F908955058BB27AA270E94EB
:10414000B4200C9462200E94542038F00E945B201E
:1041500020F039F49F3F19F426F40C9451200EF40A
:10416000E095E7FB0C944B20E92F0E94732058F355
:10417000BA17620773078407950720F079F4A6F54C
:104180000C9495200EF4E0950B2EBA2FA02D0B0168
:10419000B90190010C01CA01A0011124FF27591B8C
:1041A00099F0593F50F4503E68F11A16F040A22F92
:1041B000232F342F4427585FF3CF46953795279503
:1041C000A795F0405395C9F77EF41F16BA0B620B02
:1041D000730B840BBAF09150A1F0FF0FBB1F661F49
:1041E000771F881FC2F70EC0BA0F621F731F841F8C
:1041F00048F4879577956795B795F7959E3F08F0B2
:10420000B0CF9395880F08F09927EE0F9795879573
:1042100008950E941D210C9462200E945B2058F09A
:104220000E94542040F029F45F3F29F00C944B2069
:1042300051110C9496200C9451200E94732068F325
:104240009923B1F3552391F3951B550BBB27AA274F
:1042500062177307840738F09F5F5F4F220F331F89
:10426000441FAA1FA9F335D00E2E3AF0E0E832D051
:1042700091505040E695001CCAF72BD0FE2F29D054
:10428000660F771F881FBB1F261737074807AB0726
:10429000B0E809F0BB0B802DBF01FF2793585F4F9B
:1042A0003AF09E3F510578F00C944B200C949620E8
:1042B0005F3FE4F3983ED4F3869577956795B7957D
:1042C000F7959F5FC9F7880F911D9695879597F988
:1042D0000895E1E0660F771F881FBB1F6217730701
:1042E0008407BA0720F0621B730B840BBA0BEE1F16
:1042F00088F7E09508950E947B2088F09F5798F0FA
:10430000B92F9927B751B0F0E1F0660F771F881FDA
:10431000991F1AF0BA95C9F714C0B13091F00E94F4
:104320009520B1E008950C949520672F782F882769
:10433000B85F39F0B93FCCF3869577956795B3951B
:10434000D9F73EF490958095709561957F4F8F4F8A
:104350009F4F0895AA1BBB1B51E107C0AA1FBB1F9B
:10436000A617B70710F0A61BB70B881F991F5A9501
:10437000A9F780959095BC01CD010895A1E21A2E70
:10438000AA1BBB1BFD010DC0AA1FBB1FEE1FFF1FF9
:10439000A217B307E407F50720F0A21BB30BE40B49
:1043A000F50B661F771F881F991F1A9469F7609590
:1043B0007095809590959B01AC01BD01CF0108954A
:1043C000EE0FFF1F881F8BBF0790F691E02D199409
:1043D0000F931F93CF93DF938230910510F482E007
:1043E00090E0E0919103F091920330E020E0B0E0A2
:1043F000A0E0309799F42115310509F44AC0281B33
:10440000390B24303105D8F58A819B8161157105FE
:1044100089F1FB0193838283FE0111C040815181A8
:104420000281138148175907E0F04817590799F49A
:10443000109761F012960C93129713961C93329674
:10444000CF01DF91CF911F910F91089500939103B8
:1044500010939203F4CF2115310551F04217530701
:1044600038F0A901DB019A01BD01DF01F801C1CFDC
:10447000EF01F9CF9093920380939103CDCFFE018A
:10448000E20FF31F819391932250310939832883DE
:10449000D7CF20918F0330919003232B41F42091AB
:1044A0000B0230910C023093900320938F032091E4
:1044B000090230910A022115310541F42DB73EB7AA
:1044C00040910D0250910E02241B350BE0918F0399
:1044D000F0919003E217F307A0F42E1B3F0B28176F
:1044E000390778F0AC014E5F5F4F2417350748F06D
:1044F0004E0F5F1F5093900340938F0381939193CE
:104500009FCFF0E0E0E09CCFCF93DF930097E9F0FE
:10451000FC01329713821282A0919103B091920311
:10452000ED0130E020E01097A1F420813181820F6D
:10453000931F20918F03309190032817390709F0BA
:1045400061C0F0939003E0938F03DF91CF910895C2
:10455000EA01CE17DF07E8F54A815B819E0141152C
:104560005105B1F7E901FB83EA8349915991C40FE1
:10457000D51FEC17FD0761F4808191810296840FAD
:10458000951FE90199838883828193819B838A8324
:10459000F0E0E0E012968D919C9113970097B9F5A9
:1045A0002D913C911197CD010296820F931F20917E
:1045B0008F03309190032817390739F6309751F55A
:1045C0001092920310929103B0939003A0938F03E3
:1045D000BCCFD383C28340815181840F951FC817FC
:1045E000D90761F44E5F5F4F88819981480F591F49
:1045F000518340838A819B81938382832115310576
:1046000009F0B0CFF0939203E09391039ECFFD01A8
:10461000DC01C0CF13821282D7CF4F925F926F928C
:104620007F928F929F92AF92BF92CF92DF92EF9242
:10463000FF920F931F93CF93DF938C01009799F410
:10464000CB01DF91CF911F910F91FF90EF90DF9001
:10465000CF90BF90AF909F908F907F906F905F9022
:104660004F900C94E821FC01E60FF71F9C012250AB
:104670003109E217F30708F4AEC0D901CD91DC91FE
:104680001197C617D70720F1C530D10578F0CE01B4
:1046900004978617970750F0C61BD70B2297C19334
:1046A000D1936D937C93CF010E948422C801DF9146
:1046B000CF911F910F91FF90EF90DF90CF90BF901F
:1046C000AF909F908F907F906F905F904F900895E4
:1046D0005B01AC1ABD0A4C018C0E9D1EA09191038A
:1046E000B0919203512C412CF12CE12C109731F513
:1046F00080918F03909190038815990509F05CC013
:104700004616570608F058C08091090290910A0297
:10471000009741F48DB79EB740910D0250910E0263
:10472000841B950BE817F90708F055C0F093900328
:10473000E0938F03F90171836083B8CF8D919C91D1
:10474000119712966C90129713967C901397A81558
:10475000B90559F56C0142E0C40ED11CCA14DB0442
:1047600020F1AC014A195B09DA011296159780F025
:104770006282738251834083D9016D937C93E114EB
:10478000F10471F0D7011396FC93EE9312978ECF3C
:1047900022968C0F9D1FF90191838083F301EFCF47
:1047A000F0939203E093910381CF4816590608F4E1
:1047B0002C017D01D3019ACFCB010E94E8217C011D
:1047C000009749F0AE01B8010E94EE23C8010E9493
:1047D000842287016BCF10E000E068CFFB01DC0191
:1047E00002C001900D9241505040D8F70895FB014E
:1047F000DC0101900D920020E1F70895F894FFCFBD
:104800000000E1440000AF44440000930380000036
:10481000000000D00330035D0322048E036C03808C
:10482000030D0A00436F6D6D616E643A00413A00FA
:06483000423A00433A0089
:00000001FF
